:1000000000308A00E02800002830840083130008B4
:10001000031918280130F800F701F70B0D28F80B29
:100020000C284A30F700F70B13281628800B0A28F3
:1000300008001608F8001508F7000C118A110A12BA
:1000400021291C08F8001B08F7000D108A110A125C
:1000500028298E30F7002908F8002808F900FA014D
:10006000F808031D3D287908F800F9010830F70267
:10007000F808031D3D28F70145280310F81B442804
:10008000F90DF80DF7033D28F8138A110A123629E5
:1000900028080319B828B0002C080319B828B0079D
:1000A000031859287F30B002031CB8280319B82858
:1000B0005D288130B0070318B8283008F700F80130
:1000C000F901FA012908B400B4172A08B3002B0873
:1000D000B2001830B000B101321C86282F08FA0790
:1000E000031C7828F90A031D7828F80A0319B117A8
:1000F0002E08F907031C7F28F80A0319B1172D08E9
:10010000AA00AA172A08F8070318B117B10DF80CAE
:10011000F90CFA0CB40CB30CB20C0310B00B6B2836
:100120000130F7070318B828F81B9D28B40DFA0D05
:10013000F90DF80DF7030319B828B41FAE28FA0A11
:10014000031DAE28F90A031DAE28F80A031DAE28C8
:10015000F80CF90CFA0CF70A0319B8282908B100B1
:100160002D08B106B11FB628F817BC28F813BC2813
:10017000F701F801F901FA018A110A1247298E30B4
:10018000F7002808F7022908F9002A08F800F917EB
:10019000F7080319D6280310F908031DD228F80818
:1001A0000319D628F90CF80CF70BCB28A91FDD286A
:1001B000F809F909F80A0319F90A8A110A125029EB
:1001C00003081F398300FF30A00085309000A01481
:1001D0002008831687000530831297002015200819
:1001E00083168700043083129D0083161F149F140A
:1001F0001F159F1107309C0083138312A201A101D8
:10020000A401A301A601A501A70100308316860061
:1002100085000910891009118501831227088500BE
:1002200083168910831289100A30A80004208316CF
:100230008910831289140A30A80004200C1D252976
:1002400019287808A2007708A1000D1C542921283C
:1002500021087702A5007808A6002208031C220FB7
:10026000A6022608A9002508A80029287A08AB00BC
:100270007908AA007808A9007708A8009630AF008E
:100280004330AE000B30AD007930AC0048287A081E
:10029000AB007908AA007808A9007708A800BF2851
:1002A0007908A4007808A300270803195B29013AFC
:1002B00003197D299E29A408031D69292308313CBF
:1002C000031C692983160610831206140A30A8003D
:1002D0000420A408031D78292308633C031C782903
:1002E00083160610831206140A30A80004207C2905
:1002F00083160610831206109E29A408031D842964
:100300002308643C03188B298316861083128614F5
:100310000A30A8000420A408031D92292308323CB7
:1003200003189A2983168610831286140A30A800AF
:1003300004209E2983168610831286108316891046
:10034000831289100130A7072708023C0319A7016F
:0603500083160C29630076
:02400E00313F40
:00000001FF
;PIC16F877A
;CRC=D4DD  CREATED="02-May-19 18:21"
