:1000000000308A00E02800002830840083130008B4
:10001000031918280130F800F701F70B0D28F80B29
:100020000C284A30F700F70B13281628800B0A28F3
:1000300008001608F8001508F7000C118A110A12BA
:1000400023291C08F8001B08F7000D108A110A125A
:100050002A298E30F7002908F8002808F900FA014B
:10006000F808031D3D287908F800F9010830F70267
:10007000F808031D3D28F70145280310F81B442804
:10008000F90DF80DF7033D28F8138A110A123829E3
:1000900028080319B828B0002C080319B828B0079D
:1000A000031859287F30B002031CB8280319B82858
:1000B0005D288130B0070318B8283008F700F80130
:1000C000F901FA012908B400B4172A08B3002B0873
:1000D000B2001830B000B101321C86282F08FA0790
:1000E000031C7828F90A031D7828F80A0319B117A8
:1000F0002E08F907031C7F28F80A0319B1172D08E9
:10010000AA00AA172A08F8070318B117B10DF80CAE
:10011000F90CFA0CB40CB30CB20C0310B00B6B2836
:100120000130F7070318B828F81B9D28B40DFA0D05
:10013000F90DF80DF7030319B828B41FAE28FA0A11
:10014000031DAE28F90A031DAE28F80A031DAE28C8
:10015000F80CF90CFA0CF70A0319B8282908B100B1
:100160002D08B106B11FB628F817BC28F813BC2813
:10017000F701F801F901FA018A110A1249298E30B2
:10018000F7002808F7022908F9002A08F800F917EB
:10019000F7080319D6280310F908031DD228F80818
:1001A0000319D628F90CF80CF70BCB28A91FDD286A
:1001B000F809F909F80A0319F90A8A110A125229E9
:1001C00003081F398300FF30A00085309000A01481
:1001D0002008831687000530831297002015200819
:1001E00083168700043083129D0083161F149F140A
:1001F0001F159F1107309C0083138312A201A101D8
:10020000A401A301A601A5010130A70000308316B7
:100210008600850009108910091164308312A80036
:100220000420831685018312270885008316091090
:10023000891009110130831289000A30A8000420B6
:100240000C1D272919287808A2007708A1000D1C89
:100250005629212821087702A5007808A60022083F
:10026000031C220FA6022608A9002508A800292899
:100270007A08AB007908AA007808A9007708A800D6
:100280009630AF004330AE000B30AD007930AC009B
:1002900048287A08AB007908AA007808A9007708EE
:1002A000A800BF287908A4007808A30083160910C5
:1002B00089100911831289012708013A0319642959
:1002C000013A03199529C529A408031D7329230898
:1002D000313C031C7329831686010130831286008A
:1002E0000A30A8000420A408031D89292308633CC0
:1002F000031C8929A408031D81292308323C031803
:100300008929831686010230831286000A30A800EC
:100310000420A408031D90292308643C0318942991
:100320008316860183128601C529A408031D9C2912
:100330002308643C0318A429831686010430831221
:1003400086000A30A8000420A408031DAB29230856
:10035000323C0318BA29A408031DBA292308633CB8
:10036000031CBA29831686010830831286000A30DE
:10037000A8000420A408031DC5292308313C031C40
:10038000C52983168601831286012708023C031DB6
:10039000CC290130A700CE290230A70083160D29F1
:0203A0006300F8
:02400E00313F40
:00000001FF
;PIC16F877A
;CRC=F90E  CREATED="03-May-19 18:31"
