:1000000001308A00B22900002D30840083130008DB
:10001000031918280130F800F701F70B0D28F80B29
:100020000C284A30F700F70B13281628800B0A28F3
:1000300008001608F8001508F7000C118A110A12BA
:10004000F0291C08F8001B08F7000D108A110A128D
:10005000F729F801F901F701FA013208031D3328E5
:10006000310803194D281030B3000310AF0DB00D47
:10007000F70DFA0D32087A02031D40283108770285
:10008000031C49283108F702031CFA033208FA025C
:100090000314F80DF90DB30B35288A110A12152A2D
:1000A0008E30F7002E08F8002D08F900FA01F80844
:1000B000031D64287908F800F9010830F702F808F0
:1000C000031D6428F7016C280310F81B6B28F90D39
:1000D000F80DF7036428F8138A110A121E2A2D0856
:1000E0000319DF28B50031080319DF28B507031805
:1000F00080287F30B502031CDF280319DF288428FD
:100100008130B5070318DF283508F700F801F90139
:10011000FA012E08B900B9172F08B8003008B70047
:100120001830B500B601371CAD283408FA07031C97
:100130009F28F90A031D9F28F80A0319B6173308E8
:10014000F907031CA628F80A0319B6173208AF00EE
:10015000AF172F08F8070318B617B60DF80CF90CEF
:10016000FA0CB90CB80CB70C0310B50B922801307F
:10017000F7070318DF28F81BC428B90DFA0DF90D8D
:10018000F80DF7030319DF28B91FD528FA0A031D54
:10019000D528F90A031DD528F80A031DD528F80C1F
:1001A000F90CFA0CF70A0319DF282E08B6003208FA
:1001B000B606B61FDD28F817E328F813E328F70181
:1001C000F801F901FA018A110A122F2A31080319DC
:1001D000AB29BD0035080319AB29BD02031CF52866
:1001E0007F30BD070318AB29FB288130BD02031CFB
:1001F000AB290319AB293D08F700F801F901FA0111
:10020000BC013208BB00BB173308BA003408B90080
:100210001930BD003808B90203181E290130BA028E
:1002200003181E29BB0203181E29BC0203181E292D
:10023000BC0ABB0ABA0A3808B90750293708BA02FB
:10024000031839290130BB0203183929BC020318ED
:100250003929BC0ABB0A3708BA073808B907031C92
:100260005029BA0A031D5029BB0A031D5029BC0A94
:10027000502936088038BB0203184F290130BC02D0
:1002800003184F29BC0A36088038BB073708BA075D
:10029000031C2D29BB0A031D2D29BC0A2D297A1404
:1002A000BD0B53295E290310B90DBA0DBB0DBC0D52
:1002B0000310FA0DF90DF80DBE0D0A293E1C662932
:1002C0000310F80CF90CFA0CBE0C6929F70303199A
:1002D000AB29BE1B92290310B90DBA0DBB0DBC0D85
:1002E0003808B90203187E290130BA0203187E29A2
:1002F000BB0203187E29BC02031CA1293708BA02DD
:10030000031889290130BB0203188929BC02031C88
:10031000A12936088038BB02031892290130BC029B
:10032000031CA129FA0A031DA129F90A031DA12909
:10033000F80A031DA129F70A0319AB29F80CF90CD7
:10034000FA0C3208BD003608BD06BD1FA929F817F2
:10035000AF29F813AF29F701F801F901FA018A1161
:100360000A12452A03081F398300FF30A000853098
:10037000900020152008831687000530831297000F
:10038000A014200883168700043083129D00831672
:100390001F149F141F159F1107309C0083130030FA
:1003A0008600860183128601A201A101A401A30196
:1003B000A601A50183168601831286010230AD00D5
:1003C0000420831686010130831286000A30AD00B6
:1003D000042083168601831286010C1DF429192836
:1003E0007808A2007708A1000D1C042A21287808AB
:1003F000A4007708A30021082302A5002408A60072
:100400002208031C220FA602250DAD00260DAE000A
:10041000AD0DAE0DFC30AD052E08B0002D08AF00BF
:100420000F30B200A030B10029287908A800780860
:10043000A7002808AE002708AD0050287A08B000B1
:100440007908AF007808AE007708AD009630B400A8
:100450004330B3000B30B2007A30B1006F287A0815
:10046000B0007908AF007808AE007708AD0030081A
:10047000B4002F08B3002E08B2002D08B100B80157
:10048000B701B6018030B500E6287A08AC007908DB
:0E049000AB007808AA007708A900DA296300FB
:02400E00313F40
:00000001FF
;PIC16F877A
;CRC=F6B1  CREATED="01-May-19 19:15"
